{
  "_format": "hh-sol-artifact-1",
  "contractName": "CommunityPowerToken",
  "sourceName": "contracts/CommunityPowerToken.sol",
  "abi": [
    {
      "anonymous": false,
      "inputs": [
        {
          "indexed": true,
          "internalType": "address",
          "name": "owner",
          "type": "address"
        },
        {
          "indexed": true,
          "internalType": "address",
          "name": "spender",
          "type": "address"
        },
        {
          "indexed": false,
          "internalType": "uint256",
          "name": "value",
          "type": "uint256"
        }
      ],
      "name": "Approval",
      "type": "event"
    },
    {
      "anonymous": false,
      "inputs": [
        {
          "indexed": true,
          "internalType": "address",
          "name": "from",
          "type": "address"
        },
        {
          "indexed": true,
          "internalType": "address",
          "name": "to",
          "type": "address"
        },
        {
          "indexed": false,
          "internalType": "uint256",
          "name": "value",
          "type": "uint256"
        }
      ],
      "name": "Transfer",
      "type": "event"
    },
    {
      "inputs": [
        {
          "internalType": "address",
          "name": "owner",
          "type": "address"
        },
        {
          "internalType": "address",
          "name": "spender",
          "type": "address"
        }
      ],
      "name": "allowance",
      "outputs": [
        {
          "internalType": "uint256",
          "name": "",
          "type": "uint256"
        }
      ],
      "stateMutability": "view",
      "type": "function"
    },
    {
      "inputs": [
        {
          "internalType": "address",
          "name": "spender",
          "type": "address"
        },
        {
          "internalType": "uint256",
          "name": "amount",
          "type": "uint256"
        }
      ],
      "name": "approve",
      "outputs": [
        {
          "internalType": "bool",
          "name": "",
          "type": "bool"
        }
      ],
      "stateMutability": "nonpayable",
      "type": "function"
    },
    {
      "inputs": [
        {
          "internalType": "address",
          "name": "account",
          "type": "address"
        }
      ],
      "name": "balanceOf",
      "outputs": [
        {
          "internalType": "uint256",
          "name": "",
          "type": "uint256"
        }
      ],
      "stateMutability": "view",
      "type": "function"
    },
    {
      "inputs": [],
      "name": "decimals",
      "outputs": [
        {
          "internalType": "uint8",
          "name": "",
          "type": "uint8"
        }
      ],
      "stateMutability": "view",
      "type": "function"
    },
    {
      "inputs": [
        {
          "internalType": "address",
          "name": "spender",
          "type": "address"
        },
        {
          "internalType": "uint256",
          "name": "subtractedValue",
          "type": "uint256"
        }
      ],
      "name": "decreaseAllowance",
      "outputs": [
        {
          "internalType": "bool",
          "name": "",
          "type": "bool"
        }
      ],
      "stateMutability": "nonpayable",
      "type": "function"
    },
    {
      "inputs": [
        {
          "internalType": "address",
          "name": "spender",
          "type": "address"
        },
        {
          "internalType": "uint256",
          "name": "addedValue",
          "type": "uint256"
        }
      ],
      "name": "increaseAllowance",
      "outputs": [
        {
          "internalType": "bool",
          "name": "",
          "type": "bool"
        }
      ],
      "stateMutability": "nonpayable",
      "type": "function"
    },
    {
      "inputs": [],
      "name": "initialize",
      "outputs": [],
      "stateMutability": "nonpayable",
      "type": "function"
    },
    {
      "inputs": [],
      "name": "name",
      "outputs": [
        {
          "internalType": "string",
          "name": "",
          "type": "string"
        }
      ],
      "stateMutability": "view",
      "type": "function"
    },
    {
      "inputs": [],
      "name": "symbol",
      "outputs": [
        {
          "internalType": "string",
          "name": "",
          "type": "string"
        }
      ],
      "stateMutability": "view",
      "type": "function"
    },
    {
      "inputs": [],
      "name": "totalSupply",
      "outputs": [
        {
          "internalType": "uint256",
          "name": "",
          "type": "uint256"
        }
      ],
      "stateMutability": "view",
      "type": "function"
    },
    {
      "inputs": [
        {
          "internalType": "address",
          "name": "to",
          "type": "address"
        },
        {
          "internalType": "uint256",
          "name": "amount",
          "type": "uint256"
        }
      ],
      "name": "transfer",
      "outputs": [
        {
          "internalType": "bool",
          "name": "",
          "type": "bool"
        }
      ],
      "stateMutability": "nonpayable",
      "type": "function"
    },
    {
      "inputs": [
        {
          "internalType": "address",
          "name": "from",
          "type": "address"
        },
        {
          "internalType": "address",
          "name": "to",
          "type": "address"
        },
        {
          "internalType": "uint256",
          "name": "amount",
          "type": "uint256"
        }
      ],
      "name": "transferFrom",
      "outputs": [
        {
          "internalType": "bool",
          "name": "",
          "type": "bool"
        }
      ],
      "stateMutability": "nonpayable",
      "type": "function"
    }
  ],
  "bytecode": "0x608060405234801561001057600080fd5b50611965806100206000396000f3fe608060405234801561001057600080fd5b50600436106100b45760003560e01c806370a082311161007157806370a08231146101a35780638129fc1c146101d357806395d89b41146101dd578063a457c2d7146101fb578063a9059cbb1461022b578063dd62ed3e1461025b576100b4565b806306fdde03146100b9578063095ea7b3146100d757806318160ddd1461010757806323b872dd14610125578063313ce567146101555780633950935114610173575b600080fd5b6100c161028b565b6040516100ce9190611304565b60405180910390f35b6100f160048036038101906100ec91906110e9565b61031d565b6040516100fe91906112e9565b60405180910390f35b61010f610340565b60405161011c9190611466565b60405180910390f35b61013f600480360381019061013a919061109a565b61034a565b60405161014c91906112e9565b60405180910390f35b61015d610379565b60405161016a9190611481565b60405180910390f35b61018d600480360381019061018891906110e9565b610382565b60405161019a91906112e9565b60405180910390f35b6101bd60048036038101906101b89190611035565b61042c565b6040516101ca9190611466565b60405180910390f35b6101db610475565b005b6101e56105e2565b6040516101f29190611304565b60405180910390f35b610215600480360381019061021091906110e9565b610674565b60405161022291906112e9565b60405180910390f35b610245600480360381019061024091906110e9565b61075e565b60405161025291906112e9565b60405180910390f35b6102756004803603810190610270919061105e565b610781565b6040516102829190611466565b60405180910390f35b60606036805461029a90611596565b80601f01602080910402602001604051908101604052809291908181526020018280546102c690611596565b80156103135780601f106102e857610100808354040283529160200191610313565b820191906000526020600020905b8154815290600101906020018083116102f657829003601f168201915b5050505050905090565b600080610328610808565b9050610335818585610810565b600191505092915050565b6000603554905090565b600080610355610808565b90506103628582856109db565b61036d858585610a67565b60019150509392505050565b60006012905090565b60008061038d610808565b9050610421818585603460008673ffffffffffffffffffffffffffffffffffffffff1673ffffffffffffffffffffffffffffffffffffffff16815260200190815260200160002060008973ffffffffffffffffffffffffffffffffffffffff1673ffffffffffffffffffffffffffffffffffffffff1681526020019081526020016000205461041c91906114b8565b610810565b600191505092915050565b6000603360008373ffffffffffffffffffffffffffffffffffffffff1673ffffffffffffffffffffffffffffffffffffffff168152602001908152602001600020549050919050565b600060019054906101000a900460ff1661049d5760008054906101000a900460ff16156104a6565b6104a5610ceb565b5b6104e5576040517f08c379a00000000000000000000000000000000000000000000000000000000081526004016104dc906113a6565b60405180910390fd5b60008060019054906101000a900460ff161590508015610535576001600060016101000a81548160ff02191690831515021790555060016000806101000a81548160ff0219169083151502179055505b6105a96040518060400160405280601581526020017f436f6d6d756e69747920506f77657220546f6b656e00000000000000000000008152506040518060400160405280600381526020017f58595a0000000000000000000000000000000000000000000000000000000000815250610cfc565b6105be336a52b7d2dcc80cd2e4000000610d59565b80156105df5760008060016101000a81548160ff0219169083151502179055505b50565b6060603780546105f190611596565b80601f016020809104026020016040519081016040528092919081815260200182805461061d90611596565b801561066a5780601f1061063f5761010080835404028352916020019161066a565b820191906000526020600020905b81548152906001019060200180831161064d57829003601f168201915b5050505050905090565b60008061067f610808565b90506000603460008373ffffffffffffffffffffffffffffffffffffffff1673ffffffffffffffffffffffffffffffffffffffff16815260200190815260200160002060008673ffffffffffffffffffffffffffffffffffffffff1673ffffffffffffffffffffffffffffffffffffffff16815260200190815260200160002054905083811015610745576040517f08c379a000000000000000000000000000000000000000000000000000000000815260040161073c90611426565b60405180910390fd5b6107528286868403610810565b60019250505092915050565b600080610769610808565b9050610776818585610a67565b600191505092915050565b6000603460008473ffffffffffffffffffffffffffffffffffffffff1673ffffffffffffffffffffffffffffffffffffffff16815260200190815260200160002060008373ffffffffffffffffffffffffffffffffffffffff1673ffffffffffffffffffffffffffffffffffffffff16815260200190815260200160002054905092915050565b600033905090565b600073ffffffffffffffffffffffffffffffffffffffff168373ffffffffffffffffffffffffffffffffffffffff161415610880576040517f08c379a0000000000000000000000000000000000000000000000000000000008152600401610877906113e6565b60405180910390fd5b600073ffffffffffffffffffffffffffffffffffffffff168273ffffffffffffffffffffffffffffffffffffffff1614156108f0576040517f08c379a00000000000000000000000000000000000000000000000000000000081526004016108e790611346565b60405180910390fd5b80603460008573ffffffffffffffffffffffffffffffffffffffff1673ffffffffffffffffffffffffffffffffffffffff16815260200190815260200160002060008473ffffffffffffffffffffffffffffffffffffffff1673ffffffffffffffffffffffffffffffffffffffff168152602001908152602001600020819055508173ffffffffffffffffffffffffffffffffffffffff168373ffffffffffffffffffffffffffffffffffffffff167f8c5be1e5ebec7d5bd14f71427d1e84f3dd0314c0f7b2291e5b200ac8c7c3b925836040516109ce9190611466565b60405180910390a3505050565b60006109e78484610781565b90507fffffffffffffffffffffffffffffffffffffffffffffffffffffffffffffffff8114610a615781811015610a53576040517f08c379a0000000000000000000000000000000000000000000000000000000008152600401610a4a90611366565b60405180910390fd5b610a608484848403610810565b5b50505050565b600073ffffffffffffffffffffffffffffffffffffffff168373ffffffffffffffffffffffffffffffffffffffff161415610ad7576040517f08c379a0000000000000000000000000000000000000000000000000000000008152600401610ace906113c6565b60405180910390fd5b600073ffffffffffffffffffffffffffffffffffffffff168273ffffffffffffffffffffffffffffffffffffffff161415610b47576040517f08c379a0000000000000000000000000000000000000000000000000000000008152600401610b3e90611326565b60405180910390fd5b610b52838383610eba565b6000603360008573ffffffffffffffffffffffffffffffffffffffff1673ffffffffffffffffffffffffffffffffffffffff16815260200190815260200160002054905081811015610bd9576040517f08c379a0000000000000000000000000000000000000000000000000000000008152600401610bd090611386565b60405180910390fd5b818103603360008673ffffffffffffffffffffffffffffffffffffffff1673ffffffffffffffffffffffffffffffffffffffff1681526020019081526020016000208190555081603360008573ffffffffffffffffffffffffffffffffffffffff1673ffffffffffffffffffffffffffffffffffffffff1681526020019081526020016000206000828254610c6e91906114b8565b925050819055508273ffffffffffffffffffffffffffffffffffffffff168473ffffffffffffffffffffffffffffffffffffffff167fddf252ad1be2c89b69c2b068fc378daa952ba7f163c4a11628f55a4df523b3ef84604051610cd29190611466565b60405180910390a3610ce5848484610ebf565b50505050565b6000610cf630610ec4565b15905090565b600060019054906101000a900460ff16610d4b576040517f08c379a0000000000000000000000000000000000000000000000000000000008152600401610d4290611406565b60405180910390fd5b610d558282610ee7565b5050565b600073ffffffffffffffffffffffffffffffffffffffff168273ffffffffffffffffffffffffffffffffffffffff161415610dc9576040517f08c379a0000000000000000000000000000000000000000000000000000000008152600401610dc090611446565b60405180910390fd5b610dd560008383610eba565b8060356000828254610de791906114b8565b9250508190555080603360008473ffffffffffffffffffffffffffffffffffffffff1673ffffffffffffffffffffffffffffffffffffffff1681526020019081526020016000206000828254610e3d91906114b8565b925050819055508173ffffffffffffffffffffffffffffffffffffffff16600073ffffffffffffffffffffffffffffffffffffffff167fddf252ad1be2c89b69c2b068fc378daa952ba7f163c4a11628f55a4df523b3ef83604051610ea29190611466565b60405180910390a3610eb660008383610ebf565b5050565b505050565b505050565b6000808273ffffffffffffffffffffffffffffffffffffffff163b119050919050565b600060019054906101000a900460ff16610f36576040517f08c379a0000000000000000000000000000000000000000000000000000000008152600401610f2d90611406565b60405180910390fd5b8160369080519060200190610f4c929190610f68565b508060379080519060200190610f63929190610f68565b505050565b828054610f7490611596565b90600052602060002090601f016020900481019282610f965760008555610fdd565b82601f10610faf57805160ff1916838001178555610fdd565b82800160010185558215610fdd579182015b82811115610fdc578251825591602001919060010190610fc1565b5b509050610fea9190610fee565b5090565b5b80821115611007576000816000905550600101610fef565b5090565b60008135905061101a81611901565b92915050565b60008135905061102f81611918565b92915050565b60006020828403121561104757600080fd5b60006110558482850161100b565b91505092915050565b6000806040838503121561107157600080fd5b600061107f8582860161100b565b92505060206110908582860161100b565b9150509250929050565b6000806000606084860312156110af57600080fd5b60006110bd8682870161100b565b93505060206110ce8682870161100b565b92505060406110df86828701611020565b9150509250925092565b600080604083850312156110fc57600080fd5b600061110a8582860161100b565b925050602061111b85828601611020565b9150509250929050565b61112e81611520565b82525050565b600061113f8261149c565b61114981856114a7565b9350611159818560208601611563565b61116281611626565b840191505092915050565b600061117a6023836114a7565b915061118582611637565b604082019050919050565b600061119d6022836114a7565b91506111a882611686565b604082019050919050565b60006111c0601d836114a7565b91506111cb826116d5565b602082019050919050565b60006111e36026836114a7565b91506111ee826116fe565b604082019050919050565b6000611206602e836114a7565b91506112118261174d565b604082019050919050565b60006112296025836114a7565b91506112348261179c565b604082019050919050565b600061124c6024836114a7565b9150611257826117eb565b604082019050919050565b600061126f602b836114a7565b915061127a8261183a565b604082019050919050565b60006112926025836114a7565b915061129d82611889565b604082019050919050565b60006112b5601f836114a7565b91506112c0826118d8565b602082019050919050565b6112d48161154c565b82525050565b6112e381611556565b82525050565b60006020820190506112fe6000830184611125565b92915050565b6000602082019050818103600083015261131e8184611134565b905092915050565b6000602082019050818103600083015261133f8161116d565b9050919050565b6000602082019050818103600083015261135f81611190565b9050919050565b6000602082019050818103600083015261137f816111b3565b9050919050565b6000602082019050818103600083015261139f816111d6565b9050919050565b600060208201905081810360008301526113bf816111f9565b9050919050565b600060208201905081810360008301526113df8161121c565b9050919050565b600060208201905081810360008301526113ff8161123f565b9050919050565b6000602082019050818103600083015261141f81611262565b9050919050565b6000602082019050818103600083015261143f81611285565b9050919050565b6000602082019050818103600083015261145f816112a8565b9050919050565b600060208201905061147b60008301846112cb565b92915050565b600060208201905061149660008301846112da565b92915050565b600081519050919050565b600082825260208201905092915050565b60006114c38261154c565b91506114ce8361154c565b9250827fffffffffffffffffffffffffffffffffffffffffffffffffffffffffffffffff03821115611503576115026115c8565b5b828201905092915050565b60006115198261152c565b9050919050565b60008115159050919050565b600073ffffffffffffffffffffffffffffffffffffffff82169050919050565b6000819050919050565b600060ff82169050919050565b60005b83811015611581578082015181840152602081019050611566565b83811115611590576000848401525b50505050565b600060028204905060018216806115ae57607f821691505b602082108114156115c2576115c16115f7565b5b50919050565b7f4e487b7100000000000000000000000000000000000000000000000000000000600052601160045260246000fd5b7f4e487b7100000000000000000000000000000000000000000000000000000000600052602260045260246000fd5b6000601f19601f8301169050919050565b7f45524332303a207472616e7366657220746f20746865207a65726f206164647260008201527f6573730000000000000000000000000000000000000000000000000000000000602082015250565b7f45524332303a20617070726f766520746f20746865207a65726f20616464726560008201527f7373000000000000000000000000000000000000000000000000000000000000602082015250565b7f45524332303a20696e73756666696369656e7420616c6c6f77616e6365000000600082015250565b7f45524332303a207472616e7366657220616d6f756e742065786365656473206260008201527f616c616e63650000000000000000000000000000000000000000000000000000602082015250565b7f496e697469616c697a61626c653a20636f6e747261637420697320616c72656160008201527f647920696e697469616c697a6564000000000000000000000000000000000000602082015250565b7f45524332303a207472616e736665722066726f6d20746865207a65726f20616460008201527f6472657373000000000000000000000000000000000000000000000000000000602082015250565b7f45524332303a20617070726f76652066726f6d20746865207a65726f2061646460008201527f7265737300000000000000000000000000000000000000000000000000000000602082015250565b7f496e697469616c697a61626c653a20636f6e7472616374206973206e6f74206960008201527f6e697469616c697a696e67000000000000000000000000000000000000000000602082015250565b7f45524332303a2064656372656173656420616c6c6f77616e63652062656c6f7760008201527f207a65726f000000000000000000000000000000000000000000000000000000602082015250565b7f45524332303a206d696e7420746f20746865207a65726f206164647265737300600082015250565b61190a8161150e565b811461191557600080fd5b50565b6119218161154c565b811461192c57600080fd5b5056fea26469706673582212207ccd7b51c8d2c62dc68f4f668bacbbb1a95987d17143a9f4704f6d1f23e7099764736f6c63430008040033",
  "linkReferences": {},
  "deployedLinkReferences": {}
}