{
  "_format": "hh-sol-artifact-1",
  "contractName": "CommunityLedger",
  "sourceName": "contracts/CommunityLedger.sol",
  "abi": [
    {
      "anonymous": false,
      "inputs": [
        {
          "indexed": true,
          "internalType": "address",
          "name": "owner",
          "type": "address"
        },
        {
          "indexed": true,
          "internalType": "address",
          "name": "approved",
          "type": "address"
        },
        {
          "indexed": true,
          "internalType": "uint256",
          "name": "tokenId",
          "type": "uint256"
        }
      ],
      "name": "Approval",
      "type": "event"
    },
    {
      "anonymous": false,
      "inputs": [
        {
          "indexed": true,
          "internalType": "address",
          "name": "owner",
          "type": "address"
        },
        {
          "indexed": true,
          "internalType": "address",
          "name": "operator",
          "type": "address"
        },
        {
          "indexed": false,
          "internalType": "bool",
          "name": "approved",
          "type": "bool"
        }
      ],
      "name": "ApprovalForAll",
      "type": "event"
    },
    {
      "anonymous": false,
      "inputs": [
        {
          "indexed": false,
          "internalType": "uint256",
          "name": "currentBalance",
          "type": "uint256"
        },
        {
          "indexed": false,
          "internalType": "uint256",
          "name": "wantedBalance",
          "type": "uint256"
        }
      ],
      "name": "Balances",
      "type": "event"
    },
    {
      "anonymous": false,
      "inputs": [
        {
          "indexed": true,
          "internalType": "address",
          "name": "previousOwner",
          "type": "address"
        },
        {
          "indexed": true,
          "internalType": "address",
          "name": "newOwner",
          "type": "address"
        }
      ],
      "name": "OwnershipTransferred",
      "type": "event"
    },
    {
      "anonymous": false,
      "inputs": [
        {
          "indexed": true,
          "internalType": "address",
          "name": "from",
          "type": "address"
        },
        {
          "indexed": true,
          "internalType": "address",
          "name": "to",
          "type": "address"
        },
        {
          "indexed": true,
          "internalType": "uint256",
          "name": "tokenId",
          "type": "uint256"
        }
      ],
      "name": "Transfer",
      "type": "event"
    },
    {
      "inputs": [
        {
          "internalType": "address",
          "name": "to",
          "type": "address"
        },
        {
          "internalType": "uint256",
          "name": "tokenId",
          "type": "uint256"
        }
      ],
      "name": "approve",
      "outputs": [],
      "stateMutability": "nonpayable",
      "type": "function"
    },
    {
      "inputs": [
        {
          "internalType": "address",
          "name": "owner",
          "type": "address"
        }
      ],
      "name": "balanceOf",
      "outputs": [
        {
          "internalType": "uint256",
          "name": "",
          "type": "uint256"
        }
      ],
      "stateMutability": "view",
      "type": "function"
    },
    {
      "inputs": [],
      "name": "communityToken",
      "outputs": [
        {
          "internalType": "contract ERC20",
          "name": "",
          "type": "address"
        }
      ],
      "stateMutability": "view",
      "type": "function"
    },
    {
      "inputs": [
        {
          "internalType": "uint256",
          "name": "tokenId",
          "type": "uint256"
        }
      ],
      "name": "getApproved",
      "outputs": [
        {
          "internalType": "address",
          "name": "",
          "type": "address"
        }
      ],
      "stateMutability": "view",
      "type": "function"
    },
    {
      "inputs": [
        {
          "internalType": "contract ERC20",
          "name": "_communityToken",
          "type": "address"
        }
      ],
      "name": "initialize",
      "outputs": [],
      "stateMutability": "nonpayable",
      "type": "function"
    },
    {
      "inputs": [
        {
          "internalType": "address",
          "name": "owner",
          "type": "address"
        },
        {
          "internalType": "address",
          "name": "operator",
          "type": "address"
        }
      ],
      "name": "isApprovedForAll",
      "outputs": [
        {
          "internalType": "bool",
          "name": "",
          "type": "bool"
        }
      ],
      "stateMutability": "view",
      "type": "function"
    },
    {
      "inputs": [
        {
          "internalType": "string",
          "name": "_uri",
          "type": "string"
        }
      ],
      "name": "mint",
      "outputs": [],
      "stateMutability": "nonpayable",
      "type": "function"
    },
    {
      "inputs": [],
      "name": "mintEnabled",
      "outputs": [
        {
          "internalType": "bool",
          "name": "",
          "type": "bool"
        }
      ],
      "stateMutability": "view",
      "type": "function"
    },
    {
      "inputs": [],
      "name": "mintPrice",
      "outputs": [
        {
          "internalType": "uint256",
          "name": "",
          "type": "uint256"
        }
      ],
      "stateMutability": "view",
      "type": "function"
    },
    {
      "inputs": [],
      "name": "mintedBricksCount",
      "outputs": [
        {
          "internalType": "uint256",
          "name": "_value",
          "type": "uint256"
        }
      ],
      "stateMutability": "view",
      "type": "function"
    },
    {
      "inputs": [],
      "name": "name",
      "outputs": [
        {
          "internalType": "string",
          "name": "",
          "type": "string"
        }
      ],
      "stateMutability": "view",
      "type": "function"
    },
    {
      "inputs": [],
      "name": "owner",
      "outputs": [
        {
          "internalType": "address",
          "name": "",
          "type": "address"
        }
      ],
      "stateMutability": "view",
      "type": "function"
    },
    {
      "inputs": [
        {
          "internalType": "uint256",
          "name": "tokenId",
          "type": "uint256"
        }
      ],
      "name": "ownerOf",
      "outputs": [
        {
          "internalType": "address",
          "name": "",
          "type": "address"
        }
      ],
      "stateMutability": "view",
      "type": "function"
    },
    {
      "inputs": [],
      "name": "renounceOwnership",
      "outputs": [],
      "stateMutability": "nonpayable",
      "type": "function"
    },
    {
      "inputs": [
        {
          "internalType": "address",
          "name": "from",
          "type": "address"
        },
        {
          "internalType": "address",
          "name": "to",
          "type": "address"
        },
        {
          "internalType": "uint256",
          "name": "tokenId",
          "type": "uint256"
        }
      ],
      "name": "safeTransferFrom",
      "outputs": [],
      "stateMutability": "nonpayable",
      "type": "function"
    },
    {
      "inputs": [
        {
          "internalType": "address",
          "name": "from",
          "type": "address"
        },
        {
          "internalType": "address",
          "name": "to",
          "type": "address"
        },
        {
          "internalType": "uint256",
          "name": "tokenId",
          "type": "uint256"
        },
        {
          "internalType": "bytes",
          "name": "_data",
          "type": "bytes"
        }
      ],
      "name": "safeTransferFrom",
      "outputs": [],
      "stateMutability": "nonpayable",
      "type": "function"
    },
    {
      "inputs": [
        {
          "internalType": "address",
          "name": "operator",
          "type": "address"
        },
        {
          "internalType": "bool",
          "name": "approved",
          "type": "bool"
        }
      ],
      "name": "setApprovalForAll",
      "outputs": [],
      "stateMutability": "nonpayable",
      "type": "function"
    },
    {
      "inputs": [
        {
          "internalType": "bool",
          "name": "mintEnabled_",
          "type": "bool"
        }
      ],
      "name": "setMintingStatus",
      "outputs": [],
      "stateMutability": "nonpayable",
      "type": "function"
    },
    {
      "inputs": [
        {
          "internalType": "bytes4",
          "name": "interfaceId",
          "type": "bytes4"
        }
      ],
      "name": "supportsInterface",
      "outputs": [
        {
          "internalType": "bool",
          "name": "",
          "type": "bool"
        }
      ],
      "stateMutability": "view",
      "type": "function"
    },
    {
      "inputs": [],
      "name": "symbol",
      "outputs": [
        {
          "internalType": "string",
          "name": "",
          "type": "string"
        }
      ],
      "stateMutability": "view",
      "type": "function"
    },
    {
      "inputs": [
        {
          "internalType": "uint256",
          "name": "index",
          "type": "uint256"
        }
      ],
      "name": "tokenByIndex",
      "outputs": [
        {
          "internalType": "uint256",
          "name": "",
          "type": "uint256"
        }
      ],
      "stateMutability": "view",
      "type": "function"
    },
    {
      "inputs": [
        {
          "internalType": "address",
          "name": "owner",
          "type": "address"
        },
        {
          "internalType": "uint256",
          "name": "index",
          "type": "uint256"
        }
      ],
      "name": "tokenOfOwnerByIndex",
      "outputs": [
        {
          "internalType": "uint256",
          "name": "",
          "type": "uint256"
        }
      ],
      "stateMutability": "view",
      "type": "function"
    },
    {
      "inputs": [
        {
          "internalType": "uint256",
          "name": "tokenId",
          "type": "uint256"
        }
      ],
      "name": "tokenURI",
      "outputs": [
        {
          "internalType": "string",
          "name": "",
          "type": "string"
        }
      ],
      "stateMutability": "view",
      "type": "function"
    },
    {
      "inputs": [],
      "name": "totalSupply",
      "outputs": [
        {
          "internalType": "uint256",
          "name": "",
          "type": "uint256"
        }
      ],
      "stateMutability": "view",
      "type": "function"
    },
    {
      "inputs": [
        {
          "internalType": "address",
          "name": "from",
          "type": "address"
        },
        {
          "internalType": "address",
          "name": "to",
          "type": "address"
        },
        {
          "internalType": "uint256",
          "name": "tokenId",
          "type": "uint256"
        }
      ],
      "name": "transferFrom",
      "outputs": [],
      "stateMutability": "nonpayable",
      "type": "function"
    },
    {
      "inputs": [
        {
          "internalType": "address",
          "name": "newOwner",
          "type": "address"
        }
      ],
      "name": "transferOwnership",
      "outputs": [],
      "stateMutability": "nonpayable",
      "type": "function"
    },
    {
      "inputs": [],
      "name": "withdrawMintFee",
      "outputs": [],
      "stateMutability": "nonpayable",
      "type": "function"
    }
  ],
  "bytecode": "0x608060405234801561001057600080fd5b5061465b806100206000396000f3fe608060405234801561001057600080fd5b50600436106101a95760003560e01c806370a08231116100f9578063b88d4fde11610097578063d123973011610071578063d1239730146104a8578063d85d3d27146104c6578063e985e9c5146104e2578063f2fde38b14610512576101a9565b8063b88d4fde14610440578063c4d66de81461045c578063c87b56dd14610478576101a9565b80637420aa36116100d35780637420aa36146103cc5780638da5cb5b146103e857806395d89b4114610406578063a22cb46514610424576101a9565b806370a0823114610388578063715018a6146103b8578063734b46fa146103c2576101a9565b806329aa16171161016657806342842e0e1161014057806342842e0e146102ee5780634f6ccce71461030a5780636352211e1461033a5780636817c76c1461036a576101a9565b806329aa1617146102825780632f745c59146102a05780633bef85e0146102d0576101a9565b806301ffc9a7146101ae57806306fdde03146101de578063081812fc146101fc578063095ea7b31461022c57806318160ddd1461024857806323b872dd14610266575b600080fd5b6101c860048036038101906101c391906130da565b61052e565b6040516101d591906136fa565b60405180910390f35b6101e6610540565b6040516101f39190613730565b60405180910390f35b61021660048036038101906102119190613196565b6105d2565b6040516102239190613633565b60405180910390f35b6102466004803603810190610241919061304c565b610657565b005b61025061076f565b60405161025d9190613a52565b60405180910390f35b610280600480360381019061027b9190612f46565b61077c565b005b61028a6107dc565b6040516102979190613715565b60405180910390f35b6102ba60048036038101906102b5919061304c565b610803565b6040516102c79190613a52565b60405180910390f35b6102d86108a8565b6040516102e59190613a52565b60405180910390f35b61030860048036038101906103039190612f46565b6108b5565b005b610324600480360381019061031f9190613196565b6108d5565b6040516103319190613a52565b60405180910390f35b610354600480360381019061034f9190613196565b61096c565b6040516103619190613633565b60405180910390f35b610372610a1e565b60405161037f9190613a52565b60405180910390f35b6103a2600480360381019061039d9190612ee1565b610a29565b6040516103af9190613a52565b60405180910390f35b6103c0610ae1565b005b6103ca610b69565b005b6103e660048036038101906103e19190613088565b610d50565b005b6103f0610dea565b6040516103fd9190613633565b60405180910390f35b61040e610e14565b60405161041b9190613730565b60405180910390f35b61043e60048036038101906104399190613010565b610ea6565b005b61045a60048036038101906104559190612f95565b610ebc565b005b6104766004803603810190610471919061312c565b610f1e565b005b610492600480360381019061048d9190613196565b6110e1565b60405161049f9190613730565b60405180910390f35b6104b06110f3565b6040516104bd91906136fa565b60405180910390f35b6104e060048036038101906104db9190613155565b61110b565b005b6104fc60048036038101906104f79190612f0a565b611296565b60405161050991906136fa565b60405180910390f35b61052c60048036038101906105279190612ee1565b61132a565b005b600061053982611422565b9050919050565b60606065805461054f90613d38565b80601f016020809104026020016040519081016040528092919081815260200182805461057b90613d38565b80156105c85780601f1061059d576101008083540402835291602001916105c8565b820191906000526020600020905b8154815290600101906020018083116105ab57829003601f168201915b5050505050905090565b60006105dd8261149c565b61061c576040517f08c379a000000000000000000000000000000000000000000000000000000000815260040161061390613972565b60405180910390fd5b6069600083815260200190815260200160002060009054906101000a900473ffffffffffffffffffffffffffffffffffffffff169050919050565b60006106628261096c565b90508073ffffffffffffffffffffffffffffffffffffffff168373ffffffffffffffffffffffffffffffffffffffff1614156106d3576040517f08c379a00000000000000000000000000000000000000000000000000000000081526004016106ca906139d2565b60405180910390fd5b8073ffffffffffffffffffffffffffffffffffffffff166106f2611508565b73ffffffffffffffffffffffffffffffffffffffff16148061072157506107208161071b611508565b611296565b5b610760576040517f08c379a000000000000000000000000000000000000000000000000000000000815260040161075790613852565b60405180910390fd5b61076a8383611510565b505050565b600060cb80549050905090565b61078d610787611508565b826115c9565b6107cc576040517f08c379a00000000000000000000000000000000000000000000000000000000081526004016107c3906139f2565b60405180910390fd5b6107d78383836116a7565b505050565b61013060009054906101000a900473ffffffffffffffffffffffffffffffffffffffff1681565b600061080e83610a29565b821061084f576040517f08c379a000000000000000000000000000000000000000000000000000000000815260040161084690613752565b60405180910390fd5b60c960008473ffffffffffffffffffffffffffffffffffffffff1673ffffffffffffffffffffffffffffffffffffffff168152602001908152602001600020600083815260200190815260200160002054905092915050565b61012d8060000154905081565b6108d083838360405180602001604052806000815250610ebc565b505050565b60006108df61076f565b8210610920576040517f08c379a000000000000000000000000000000000000000000000000000000000815260040161091790613a12565b60405180910390fd5b60cb828154811061095a577f4e487b7100000000000000000000000000000000000000000000000000000000600052603260045260246000fd5b90600052602060002001549050919050565b6000806067600084815260200190815260200160002060009054906101000a900473ffffffffffffffffffffffffffffffffffffffff169050600073ffffffffffffffffffffffffffffffffffffffff168173ffffffffffffffffffffffffffffffffffffffff161415610a15576040517f08c379a0000000000000000000000000000000000000000000000000000000008152600401610a0c906138b2565b60405180910390fd5b80915050919050565b600061012f54905090565b60008073ffffffffffffffffffffffffffffffffffffffff168273ffffffffffffffffffffffffffffffffffffffff161415610a9a576040517f08c379a0000000000000000000000000000000000000000000000000000000008152600401610a9190613892565b60405180910390fd5b606860008373ffffffffffffffffffffffffffffffffffffffff1673ffffffffffffffffffffffffffffffffffffffff168152602001908152602001600020549050919050565b610ae9611508565b73ffffffffffffffffffffffffffffffffffffffff16610b07610dea565b73ffffffffffffffffffffffffffffffffffffffff1614610b5d576040517f08c379a0000000000000000000000000000000000000000000000000000000008152600401610b5490613992565b60405180910390fd5b610b67600061190e565b565b610b71611508565b73ffffffffffffffffffffffffffffffffffffffff16610b8f610dea565b73ffffffffffffffffffffffffffffffffffffffff1614610be5576040517f08c379a0000000000000000000000000000000000000000000000000000000008152600401610bdc90613992565b60405180910390fd5b600061013060009054906101000a900473ffffffffffffffffffffffffffffffffffffffff1673ffffffffffffffffffffffffffffffffffffffff166370a08231306040518263ffffffff1660e01b8152600401610c439190613633565b60206040518083038186803b158015610c5b57600080fd5b505afa158015610c6f573d6000803e3d6000fd5b505050506040513d601f19601f82011682018060405250810190610c9391906131bf565b905061013060009054906101000a900473ffffffffffffffffffffffffffffffffffffffff1673ffffffffffffffffffffffffffffffffffffffff1663a9059cbb610cdc610dea565b836040518363ffffffff1660e01b8152600401610cfa9291906136d1565b602060405180830381600087803b158015610d1457600080fd5b505af1158015610d28573d6000803e3d6000fd5b505050506040513d601f19601f82011682018060405250810190610d4c91906130b1565b5050565b610d58611508565b73ffffffffffffffffffffffffffffffffffffffff16610d76610dea565b73ffffffffffffffffffffffffffffffffffffffff1614610dcc576040517f08c379a0000000000000000000000000000000000000000000000000000000008152600401610dc390613992565b60405180910390fd5b8061012e60006101000a81548160ff02191690831515021790555050565b600060fb60009054906101000a900473ffffffffffffffffffffffffffffffffffffffff16905090565b606060668054610e2390613d38565b80601f0160208091040260200160405190810160405280929190818152602001828054610e4f90613d38565b8015610e9c5780601f10610e7157610100808354040283529160200191610e9c565b820191906000526020600020905b815481529060010190602001808311610e7f57829003601f168201915b5050505050905090565b610eb8610eb1611508565b83836119d4565b5050565b610ecd610ec7611508565b836115c9565b610f0c576040517f08c379a0000000000000000000000000000000000000000000000000000000008152600401610f03906139f2565b60405180910390fd5b610f1884848484611b41565b50505050565b600060019054906101000a900460ff16610f465760008054906101000a900460ff1615610f4f565b610f4e611b9d565b5b610f8e576040517f08c379a0000000000000000000000000000000000000000000000000000000008152600401610f8590613912565b60405180910390fd5b60008060019054906101000a900460ff161590508015610fde576001600060016101000a81548160ff02191690831515021790555060016000806101000a81548160ff0219169083151502179055505b6110526040518060400160405280600681526020017f78427269636b00000000000000000000000000000000000000000000000000008152506040518060400160405280600481526020017f7842524b00000000000000000000000000000000000000000000000000000000815250611bae565b61105a611c0b565b611062611c5c565b61106a611cad565b678ac7230489e8000061012f819055508161013060006101000a81548173ffffffffffffffffffffffffffffffffffffffff021916908373ffffffffffffffffffffffffffffffffffffffff16021790555080156110dd5760008060016101000a81548160ff0219169083151502179055505b5050565b60606110ec82611d06565b9050919050565b600061012e60009054906101000a900460ff16905090565b61012e60009054906101000a900460ff1661115b576040517f08c379a0000000000000000000000000000000000000000000000000000000008152600401611152906138f2565b60405180910390fd5b600061116633610a29565b146111a6576040517f08c379a000000000000000000000000000000000000000000000000000000000815260040161119d90613872565b60405180910390fd5b61013060009054906101000a900473ffffffffffffffffffffffffffffffffffffffff1673ffffffffffffffffffffffffffffffffffffffff166323b872dd333061012f546040518463ffffffff1660e01b81526004016112099392919061364e565b602060405180830381600087803b15801561122357600080fd5b505af1158015611237573d6000803e3d6000fd5b505050506040513d601f19601f8201168201806040525081019061125b91906130b1565b5061126761012d611e58565b600061127461012d611e6e565b90506112803382611e7c565b61128a8183611e9a565b611292611f0e565b5050565b6000606a60008473ffffffffffffffffffffffffffffffffffffffff1673ffffffffffffffffffffffffffffffffffffffff16815260200190815260200160002060008373ffffffffffffffffffffffffffffffffffffffff1673ffffffffffffffffffffffffffffffffffffffff16815260200190815260200160002060009054906101000a900460ff16905092915050565b611332611508565b73ffffffffffffffffffffffffffffffffffffffff16611350610dea565b73ffffffffffffffffffffffffffffffffffffffff16146113a6576040517f08c379a000000000000000000000000000000000000000000000000000000000815260040161139d90613992565b60405180910390fd5b600073ffffffffffffffffffffffffffffffffffffffff168173ffffffffffffffffffffffffffffffffffffffff161415611416576040517f08c379a000000000000000000000000000000000000000000000000000000000815260040161140d90613792565b60405180910390fd5b61141f8161190e565b50565b60007f780e9d63000000000000000000000000000000000000000000000000000000007bffffffffffffffffffffffffffffffffffffffffffffffffffffffff1916827bffffffffffffffffffffffffffffffffffffffffffffffffffffffff19161480611495575061149482611f56565b5b9050919050565b60008073ffffffffffffffffffffffffffffffffffffffff166067600084815260200190815260200160002060009054906101000a900473ffffffffffffffffffffffffffffffffffffffff1673ffffffffffffffffffffffffffffffffffffffff1614159050919050565b600033905090565b816069600083815260200190815260200160002060006101000a81548173ffffffffffffffffffffffffffffffffffffffff021916908373ffffffffffffffffffffffffffffffffffffffff160217905550808273ffffffffffffffffffffffffffffffffffffffff166115838361096c565b73ffffffffffffffffffffffffffffffffffffffff167f8c5be1e5ebec7d5bd14f71427d1e84f3dd0314c0f7b2291e5b200ac8c7c3b92560405160405180910390a45050565b60006115d48261149c565b611613576040517f08c379a000000000000000000000000000000000000000000000000000000000815260040161160a90613832565b60405180910390fd5b600061161e8361096c565b90508073ffffffffffffffffffffffffffffffffffffffff168473ffffffffffffffffffffffffffffffffffffffff16148061168d57508373ffffffffffffffffffffffffffffffffffffffff16611675846105d2565b73ffffffffffffffffffffffffffffffffffffffff16145b8061169e575061169d8185611296565b5b91505092915050565b8273ffffffffffffffffffffffffffffffffffffffff166116c78261096c565b73ffffffffffffffffffffffffffffffffffffffff161461171d576040517f08c379a0000000000000000000000000000000000000000000000000000000008152600401611714906137b2565b60405180910390fd5b600073ffffffffffffffffffffffffffffffffffffffff168273ffffffffffffffffffffffffffffffffffffffff16141561178d576040517f08c379a0000000000000000000000000000000000000000000000000000000008152600401611784906137f2565b60405180910390fd5b611798838383612038565b6117a3600082611510565b6001606860008573ffffffffffffffffffffffffffffffffffffffff1673ffffffffffffffffffffffffffffffffffffffff16815260200190815260200160002060008282546117f39190613c18565b925050819055506001606860008473ffffffffffffffffffffffffffffffffffffffff1673ffffffffffffffffffffffffffffffffffffffff168152602001908152602001600020600082825461184a9190613b37565b92505081905550816067600083815260200190815260200160002060006101000a81548173ffffffffffffffffffffffffffffffffffffffff021916908373ffffffffffffffffffffffffffffffffffffffff160217905550808273ffffffffffffffffffffffffffffffffffffffff168473ffffffffffffffffffffffffffffffffffffffff167fddf252ad1be2c89b69c2b068fc378daa952ba7f163c4a11628f55a4df523b3ef60405160405180910390a4611909838383612048565b505050565b600060fb60009054906101000a900473ffffffffffffffffffffffffffffffffffffffff1690508160fb60006101000a81548173ffffffffffffffffffffffffffffffffffffffff021916908373ffffffffffffffffffffffffffffffffffffffff1602179055508173ffffffffffffffffffffffffffffffffffffffff168173ffffffffffffffffffffffffffffffffffffffff167f8be0079c531659141344cd1fd0a4f28419497f9722a3daafe3b4186f6b6457e060405160405180910390a35050565b8173ffffffffffffffffffffffffffffffffffffffff168373ffffffffffffffffffffffffffffffffffffffff161415611a43576040517f08c379a0000000000000000000000000000000000000000000000000000000008152600401611a3a90613812565b60405180910390fd5b80606a60008573ffffffffffffffffffffffffffffffffffffffff1673ffffffffffffffffffffffffffffffffffffffff16815260200190815260200160002060008473ffffffffffffffffffffffffffffffffffffffff1673ffffffffffffffffffffffffffffffffffffffff16815260200190815260200160002060006101000a81548160ff0219169083151502179055508173ffffffffffffffffffffffffffffffffffffffff168373ffffffffffffffffffffffffffffffffffffffff167f17307eab39ab6107e8899845ad3d59bd9653f200f220920489ca2b5937696c3183604051611b3491906136fa565b60405180910390a3505050565b611b4c8484846116a7565b611b588484848461204d565b611b97576040517f08c379a0000000000000000000000000000000000000000000000000000000008152600401611b8e90613772565b60405180910390fd5b50505050565b6000611ba8306121e4565b15905090565b600060019054906101000a900460ff16611bfd576040517f08c379a0000000000000000000000000000000000000000000000000000000008152600401611bf490613a32565b60405180910390fd5b611c078282612207565b5050565b600060019054906101000a900460ff16611c5a576040517f08c379a0000000000000000000000000000000000000000000000000000000008152600401611c5190613a32565b60405180910390fd5b565b600060019054906101000a900460ff16611cab576040517f08c379a0000000000000000000000000000000000000000000000000000000008152600401611ca290613a32565b60405180910390fd5b565b600060019054906101000a900460ff16611cfc576040517f08c379a0000000000000000000000000000000000000000000000000000000008152600401611cf390613a32565b60405180910390fd5b611d04612288565b565b6060611d118261149c565b611d50576040517f08c379a0000000000000000000000000000000000000000000000000000000008152600401611d4790613952565b60405180910390fd5b6000609760008481526020019081526020016000208054611d7090613d38565b80601f0160208091040260200160405190810160405280929190818152602001828054611d9c90613d38565b8015611de95780601f10611dbe57610100808354040283529160200191611de9565b820191906000526020600020905b815481529060010190602001808311611dcc57829003601f168201915b505050505090506000611dfa6122e9565b9050600081511415611e10578192505050611e53565b600082511115611e45578082604051602001611e2d92919061360f565b60405160208183030381529060405292505050611e53565b611e4e84612300565b925050505b919050565b6001816000016000828254019250508190555050565b600081600001549050919050565b611e968282604051806020016040528060008152506123a7565b5050565b611ea38261149c565b611ee2576040517f08c379a0000000000000000000000000000000000000000000000000000000008152600401611ed9906138d2565b60405180910390fd5b80609760008481526020019081526020016000209080519060200190611f09929190612cc6565b505050565b611f4d611f3b6064611f2d600361012f5461240290919063ffffffff16565b61241890919063ffffffff16565b61012f5461242e90919063ffffffff16565b61012f81905550565b60007f80ac58cd000000000000000000000000000000000000000000000000000000007bffffffffffffffffffffffffffffffffffffffffffffffffffffffff1916827bffffffffffffffffffffffffffffffffffffffffffffffffffffffff1916148061202157507f5b5e139f000000000000000000000000000000000000000000000000000000007bffffffffffffffffffffffffffffffffffffffffffffffffffffffff1916827bffffffffffffffffffffffffffffffffffffffffffffffffffffffff1916145b80612031575061203082612444565b5b9050919050565b6120438383836124ae565b505050565b505050565b600061206e8473ffffffffffffffffffffffffffffffffffffffff166121e4565b156121d7578373ffffffffffffffffffffffffffffffffffffffff1663150b7a02612097611508565b8786866040518563ffffffff1660e01b81526004016120b99493929190613685565b602060405180830381600087803b1580156120d357600080fd5b505af192505050801561210457506040513d601f19601f820116820180604052508101906121019190613103565b60015b612187573d8060008114612134576040519150601f19603f3d011682016040523d82523d6000602084013e612139565b606091505b5060008151141561217f576040517f08c379a000000000000000000000000000000000000000000000000000000000815260040161217690613772565b60405180910390fd5b805181602001fd5b63150b7a0260e01b7bffffffffffffffffffffffffffffffffffffffffffffffffffffffff1916817bffffffffffffffffffffffffffffffffffffffffffffffffffffffff1916149150506121dc565b600190505b949350505050565b6000808273ffffffffffffffffffffffffffffffffffffffff163b119050919050565b600060019054906101000a900460ff16612256576040517f08c379a000000000000000000000000000000000000000000000000000000000815260040161224d90613a32565b60405180910390fd5b816065908051906020019061226c929190612cc6565b508060669080519060200190612283929190612cc6565b505050565b600060019054906101000a900460ff166122d7576040517f08c379a00000000000000000000000000000000000000000000000000000000081526004016122ce90613a32565b60405180910390fd5b6122e76122e2611508565b61190e565b565b606060405180602001604052806000815250905090565b606061230b8261149c565b61234a576040517f08c379a0000000000000000000000000000000000000000000000000000000008152600401612341906139b2565b60405180910390fd5b60006123546122e9565b90506000815111612374576040518060200160405280600081525061239f565b8061237e846125c2565b60405160200161238f92919061360f565b6040516020818303038152906040525b915050919050565b6123b1838361276f565b6123be600084848461204d565b6123fd576040517f08c379a00000000000000000000000000000000000000000000000000000000081526004016123f490613772565b60405180910390fd5b505050565b600081836124109190613bbe565b905092915050565b600081836124269190613b8d565b905092915050565b6000818361243c9190613b37565b905092915050565b60007f01ffc9a7000000000000000000000000000000000000000000000000000000007bffffffffffffffffffffffffffffffffffffffffffffffffffffffff1916827bffffffffffffffffffffffffffffffffffffffffffffffffffffffff1916149050919050565b6124b9838383612949565b600073ffffffffffffffffffffffffffffffffffffffff168373ffffffffffffffffffffffffffffffffffffffff1614156124fc576124f78161294e565b61253b565b8173ffffffffffffffffffffffffffffffffffffffff168373ffffffffffffffffffffffffffffffffffffffff161461253a576125398382612997565b5b5b600073ffffffffffffffffffffffffffffffffffffffff168273ffffffffffffffffffffffffffffffffffffffff16141561257e5761257981612b04565b6125bd565b8273ffffffffffffffffffffffffffffffffffffffff168273ffffffffffffffffffffffffffffffffffffffff16146125bc576125bb8282612c47565b5b5b505050565b6060600082141561260a576040518060400160405280600181526020017f3000000000000000000000000000000000000000000000000000000000000000815250905061276a565b600082905060005b6000821461263c57808061262590613d9b565b915050600a826126359190613b8d565b9150612612565b60008167ffffffffffffffff81111561267e577f4e487b7100000000000000000000000000000000000000000000000000000000600052604160045260246000fd5b6040519080825280601f01601f1916602001820160405280156126b05781602001600182028036833780820191505090505b5090505b60008514612763576001826126c99190613c18565b9150600a856126d89190613de4565b60306126e49190613b37565b60f81b818381518110612720577f4e487b7100000000000000000000000000000000000000000000000000000000600052603260045260246000fd5b60200101907effffffffffffffffffffffffffffffffffffffffffffffffffffffffffffff1916908160001a905350600a8561275c9190613b8d565b94506126b4565b8093505050505b919050565b600073ffffffffffffffffffffffffffffffffffffffff168273ffffffffffffffffffffffffffffffffffffffff1614156127df576040517f08c379a00000000000000000000000000000000000000000000000000000000081526004016127d690613932565b60405180910390fd5b6127e88161149c565b15612828576040517f08c379a000000000000000000000000000000000000000000000000000000000815260040161281f906137d2565b60405180910390fd5b61283460008383612038565b6001606860008473ffffffffffffffffffffffffffffffffffffffff1673ffffffffffffffffffffffffffffffffffffffff16815260200190815260200160002060008282546128849190613b37565b92505081905550816067600083815260200190815260200160002060006101000a81548173ffffffffffffffffffffffffffffffffffffffff021916908373ffffffffffffffffffffffffffffffffffffffff160217905550808273ffffffffffffffffffffffffffffffffffffffff16600073ffffffffffffffffffffffffffffffffffffffff167fddf252ad1be2c89b69c2b068fc378daa952ba7f163c4a11628f55a4df523b3ef60405160405180910390a461294560008383612048565b5050565b505050565b60cb8054905060cc60008381526020019081526020016000208190555060cb81908060018154018082558091505060019003906000526020600020016000909190919091505550565b600060016129a484610a29565b6129ae9190613c18565b9050600060ca6000848152602001908152602001600020549050818114612a9357600060c960008673ffffffffffffffffffffffffffffffffffffffff1673ffffffffffffffffffffffffffffffffffffffff16815260200190815260200160002060008481526020019081526020016000205490508060c960008773ffffffffffffffffffffffffffffffffffffffff1673ffffffffffffffffffffffffffffffffffffffff1681526020019081526020016000206000848152602001908152602001600020819055508160ca600083815260200190815260200160002081905550505b60ca60008481526020019081526020016000206000905560c960008573ffffffffffffffffffffffffffffffffffffffff1673ffffffffffffffffffffffffffffffffffffffff16815260200190815260200160002060008381526020019081526020016000206000905550505050565b6000600160cb80549050612b189190613c18565b9050600060cc6000848152602001908152602001600020549050600060cb8381548110612b6e577f4e487b7100000000000000000000000000000000000000000000000000000000600052603260045260246000fd5b906000526020600020015490508060cb8381548110612bb6577f4e487b7100000000000000000000000000000000000000000000000000000000600052603260045260246000fd5b90600052602060002001819055508160cc60008381526020019081526020016000208190555060cc60008581526020019081526020016000206000905560cb805480612c2b577f4e487b7100000000000000000000000000000000000000000000000000000000600052603160045260246000fd5b6001900381819060005260206000200160009055905550505050565b6000612c5283610a29565b90508160c960008573ffffffffffffffffffffffffffffffffffffffff1673ffffffffffffffffffffffffffffffffffffffff1681526020019081526020016000206000838152602001908152602001600020819055508060ca600084815260200190815260200160002081905550505050565b828054612cd290613d38565b90600052602060002090601f016020900481019282612cf45760008555612d3b565b82601f10612d0d57805160ff1916838001178555612d3b565b82800160010185558215612d3b579182015b82811115612d3a578251825591602001919060010190612d1f565b5b509050612d489190612d4c565b5090565b5b80821115612d65576000816000905550600101612d4d565b5090565b6000612d7c612d7784613a92565b613a6d565b905082815260208101848484011115612d9457600080fd5b612d9f848285613cf6565b509392505050565b6000612dba612db584613ac3565b613a6d565b905082815260208101848484011115612dd257600080fd5b612ddd848285613cf6565b509392505050565b600081359050612df4816145b2565b92915050565b600081359050612e09816145c9565b92915050565b600081519050612e1e816145c9565b92915050565b600081359050612e33816145e0565b92915050565b600081519050612e48816145e0565b92915050565b600082601f830112612e5f57600080fd5b8135612e6f848260208601612d69565b91505092915050565b600081359050612e87816145f7565b92915050565b600082601f830112612e9e57600080fd5b8135612eae848260208601612da7565b91505092915050565b600081359050612ec68161460e565b92915050565b600081519050612edb8161460e565b92915050565b600060208284031215612ef357600080fd5b6000612f0184828501612de5565b91505092915050565b60008060408385031215612f1d57600080fd5b6000612f2b85828601612de5565b9250506020612f3c85828601612de5565b9150509250929050565b600080600060608486031215612f5b57600080fd5b6000612f6986828701612de5565b9350506020612f7a86828701612de5565b9250506040612f8b86828701612eb7565b9150509250925092565b60008060008060808587031215612fab57600080fd5b6000612fb987828801612de5565b9450506020612fca87828801612de5565b9350506040612fdb87828801612eb7565b925050606085013567ffffffffffffffff811115612ff857600080fd5b61300487828801612e4e565b91505092959194509250565b6000806040838503121561302357600080fd5b600061303185828601612de5565b925050602061304285828601612dfa565b9150509250929050565b6000806040838503121561305f57600080fd5b600061306d85828601612de5565b925050602061307e85828601612eb7565b9150509250929050565b60006020828403121561309a57600080fd5b60006130a884828501612dfa565b91505092915050565b6000602082840312156130c357600080fd5b60006130d184828501612e0f565b91505092915050565b6000602082840312156130ec57600080fd5b60006130fa84828501612e24565b91505092915050565b60006020828403121561311557600080fd5b600061312384828501612e39565b91505092915050565b60006020828403121561313e57600080fd5b600061314c84828501612e78565b91505092915050565b60006020828403121561316757600080fd5b600082013567ffffffffffffffff81111561318157600080fd5b61318d84828501612e8d565b91505092915050565b6000602082840312156131a857600080fd5b60006131b684828501612eb7565b91505092915050565b6000602082840312156131d157600080fd5b60006131df84828501612ecc565b91505092915050565b6131f181613c4c565b82525050565b61320081613c5e565b82525050565b600061321182613af4565b61321b8185613b0a565b935061322b818560208601613d05565b61323481613ed1565b840191505092915050565b61324881613cd2565b82525050565b600061325982613aff565b6132638185613b1b565b9350613273818560208601613d05565b61327c81613ed1565b840191505092915050565b600061329282613aff565b61329c8185613b2c565b93506132ac818560208601613d05565b80840191505092915050565b60006132c5602b83613b1b565b91506132d082613ee2565b604082019050919050565b60006132e8603283613b1b565b91506132f382613f31565b604082019050919050565b600061330b602683613b1b565b915061331682613f80565b604082019050919050565b600061332e602583613b1b565b915061333982613fcf565b604082019050919050565b6000613351601c83613b1b565b915061335c8261401e565b602082019050919050565b6000613374602483613b1b565b915061337f82614047565b604082019050919050565b6000613397601983613b1b565b91506133a282614096565b602082019050919050565b60006133ba602c83613b1b565b91506133c5826140bf565b604082019050919050565b60006133dd603883613b1b565b91506133e88261410e565b604082019050919050565b6000613400602b83613b1b565b915061340b8261415d565b604082019050919050565b6000613423602a83613b1b565b915061342e826141ac565b604082019050919050565b6000613446602983613b1b565b9150613451826141fb565b604082019050919050565b6000613469602e83613b1b565b91506134748261424a565b604082019050919050565b600061348c602183613b1b565b915061349782614299565b604082019050919050565b60006134af602e83613b1b565b91506134ba826142e8565b604082019050919050565b60006134d2602083613b1b565b91506134dd82614337565b602082019050919050565b60006134f5603183613b1b565b915061350082614360565b604082019050919050565b6000613518602c83613b1b565b9150613523826143af565b604082019050919050565b600061353b602083613b1b565b9150613546826143fe565b602082019050919050565b600061355e602f83613b1b565b915061356982614427565b604082019050919050565b6000613581602183613b1b565b915061358c82614476565b604082019050919050565b60006135a4603183613b1b565b91506135af826144c5565b604082019050919050565b60006135c7602c83613b1b565b91506135d282614514565b604082019050919050565b60006135ea602b83613b1b565b91506135f582614563565b604082019050919050565b61360981613cc8565b82525050565b600061361b8285613287565b91506136278284613287565b91508190509392505050565b600060208201905061364860008301846131e8565b92915050565b600060608201905061366360008301866131e8565b61367060208301856131e8565b61367d6040830184613600565b949350505050565b600060808201905061369a60008301876131e8565b6136a760208301866131e8565b6136b46040830185613600565b81810360608301526136c68184613206565b905095945050505050565b60006040820190506136e660008301856131e8565b6136f36020830184613600565b9392505050565b600060208201905061370f60008301846131f7565b92915050565b600060208201905061372a600083018461323f565b92915050565b6000602082019050818103600083015261374a818461324e565b905092915050565b6000602082019050818103600083015261376b816132b8565b9050919050565b6000602082019050818103600083015261378b816132db565b9050919050565b600060208201905081810360008301526137ab816132fe565b9050919050565b600060208201905081810360008301526137cb81613321565b9050919050565b600060208201905081810360008301526137eb81613344565b9050919050565b6000602082019050818103600083015261380b81613367565b9050919050565b6000602082019050818103600083015261382b8161338a565b9050919050565b6000602082019050818103600083015261384b816133ad565b9050919050565b6000602082019050818103600083015261386b816133d0565b9050919050565b6000602082019050818103600083015261388b816133f3565b9050919050565b600060208201905081810360008301526138ab81613416565b9050919050565b600060208201905081810360008301526138cb81613439565b9050919050565b600060208201905081810360008301526138eb8161345c565b9050919050565b6000602082019050818103600083015261390b8161347f565b9050919050565b6000602082019050818103600083015261392b816134a2565b9050919050565b6000602082019050818103600083015261394b816134c5565b9050919050565b6000602082019050818103600083015261396b816134e8565b9050919050565b6000602082019050818103600083015261398b8161350b565b9050919050565b600060208201905081810360008301526139ab8161352e565b9050919050565b600060208201905081810360008301526139cb81613551565b9050919050565b600060208201905081810360008301526139eb81613574565b9050919050565b60006020820190508181036000830152613a0b81613597565b9050919050565b60006020820190508181036000830152613a2b816135ba565b9050919050565b60006020820190508181036000830152613a4b816135dd565b9050919050565b6000602082019050613a676000830184613600565b92915050565b6000613a77613a88565b9050613a838282613d6a565b919050565b6000604051905090565b600067ffffffffffffffff821115613aad57613aac613ea2565b5b613ab682613ed1565b9050602081019050919050565b600067ffffffffffffffff821115613ade57613add613ea2565b5b613ae782613ed1565b9050602081019050919050565b600081519050919050565b600081519050919050565b600082825260208201905092915050565b600082825260208201905092915050565b600081905092915050565b6000613b4282613cc8565b9150613b4d83613cc8565b9250827fffffffffffffffffffffffffffffffffffffffffffffffffffffffffffffffff03821115613b8257613b81613e15565b5b828201905092915050565b6000613b9882613cc8565b9150613ba383613cc8565b925082613bb357613bb2613e44565b5b828204905092915050565b6000613bc982613cc8565b9150613bd483613cc8565b9250817fffffffffffffffffffffffffffffffffffffffffffffffffffffffffffffffff0483118215151615613c0d57613c0c613e15565b5b828202905092915050565b6000613c2382613cc8565b9150613c2e83613cc8565b925082821015613c4157613c40613e15565b5b828203905092915050565b6000613c5782613ca8565b9050919050565b60008115159050919050565b60007fffffffff0000000000000000000000000000000000000000000000000000000082169050919050565b6000613ca182613c4c565b9050919050565b600073ffffffffffffffffffffffffffffffffffffffff82169050919050565b6000819050919050565b6000613cdd82613ce4565b9050919050565b6000613cef82613ca8565b9050919050565b82818337600083830152505050565b60005b83811015613d23578082015181840152602081019050613d08565b83811115613d32576000848401525b50505050565b60006002820490506001821680613d5057607f821691505b60208210811415613d6457613d63613e73565b5b50919050565b613d7382613ed1565b810181811067ffffffffffffffff82111715613d9257613d91613ea2565b5b80604052505050565b6000613da682613cc8565b91507fffffffffffffffffffffffffffffffffffffffffffffffffffffffffffffffff821415613dd957613dd8613e15565b5b600182019050919050565b6000613def82613cc8565b9150613dfa83613cc8565b925082613e0a57613e09613e44565b5b828206905092915050565b7f4e487b7100000000000000000000000000000000000000000000000000000000600052601160045260246000fd5b7f4e487b7100000000000000000000000000000000000000000000000000000000600052601260045260246000fd5b7f4e487b7100000000000000000000000000000000000000000000000000000000600052602260045260246000fd5b7f4e487b7100000000000000000000000000000000000000000000000000000000600052604160045260246000fd5b6000601f19601f8301169050919050565b7f455243373231456e756d657261626c653a206f776e657220696e646578206f7560008201527f74206f6620626f756e6473000000000000000000000000000000000000000000602082015250565b7f4552433732313a207472616e7366657220746f206e6f6e20455243373231526560008201527f63656976657220696d706c656d656e7465720000000000000000000000000000602082015250565b7f4f776e61626c653a206e6577206f776e657220697320746865207a65726f206160008201527f6464726573730000000000000000000000000000000000000000000000000000602082015250565b7f4552433732313a207472616e736665722066726f6d20696e636f72726563742060008201527f6f776e6572000000000000000000000000000000000000000000000000000000602082015250565b7f4552433732313a20746f6b656e20616c7265616479206d696e74656400000000600082015250565b7f4552433732313a207472616e7366657220746f20746865207a65726f2061646460008201527f7265737300000000000000000000000000000000000000000000000000000000602082015250565b7f4552433732313a20617070726f766520746f2063616c6c657200000000000000600082015250565b7f4552433732313a206f70657261746f7220717565727920666f72206e6f6e657860008201527f697374656e7420746f6b656e0000000000000000000000000000000000000000602082015250565b7f4552433732313a20617070726f76652063616c6c6572206973206e6f74206f7760008201527f6e6572206e6f7220617070726f76656420666f7220616c6c0000000000000000602082015250565b7f436f6d6d756e697479206d656d62657273206e6f7420616c6c6f77656420746f60008201527f206d696e74207477696365000000000000000000000000000000000000000000602082015250565b7f4552433732313a2062616c616e636520717565727920666f7220746865207a6560008201527f726f206164647265737300000000000000000000000000000000000000000000602082015250565b7f4552433732313a206f776e657220717565727920666f72206e6f6e657869737460008201527f656e7420746f6b656e0000000000000000000000000000000000000000000000602082015250565b7f45524337323155524953746f726167653a2055524920736574206f66206e6f6e60008201527f6578697374656e7420746f6b656e000000000000000000000000000000000000602082015250565b7f4d696e74696e67206e6f7420656e61626c656420617420746865206d6f6d656e60008201527f7400000000000000000000000000000000000000000000000000000000000000602082015250565b7f496e697469616c697a61626c653a20636f6e747261637420697320616c72656160008201527f647920696e697469616c697a6564000000000000000000000000000000000000602082015250565b7f4552433732313a206d696e7420746f20746865207a65726f2061646472657373600082015250565b7f45524337323155524953746f726167653a2055524920717565727920666f722060008201527f6e6f6e6578697374656e7420746f6b656e000000000000000000000000000000602082015250565b7f4552433732313a20617070726f76656420717565727920666f72206e6f6e657860008201527f697374656e7420746f6b656e0000000000000000000000000000000000000000602082015250565b7f4f776e61626c653a2063616c6c6572206973206e6f7420746865206f776e6572600082015250565b7f4552433732314d657461646174613a2055524920717565727920666f72206e6f60008201527f6e6578697374656e7420746f6b656e0000000000000000000000000000000000602082015250565b7f4552433732313a20617070726f76616c20746f2063757272656e74206f776e6560008201527f7200000000000000000000000000000000000000000000000000000000000000602082015250565b7f4552433732313a207472616e736665722063616c6c6572206973206e6f74206f60008201527f776e6572206e6f7220617070726f766564000000000000000000000000000000602082015250565b7f455243373231456e756d657261626c653a20676c6f62616c20696e646578206f60008201527f7574206f6620626f756e64730000000000000000000000000000000000000000602082015250565b7f496e697469616c697a61626c653a20636f6e7472616374206973206e6f74206960008201527f6e697469616c697a696e67000000000000000000000000000000000000000000602082015250565b6145bb81613c4c565b81146145c657600080fd5b50565b6145d281613c5e565b81146145dd57600080fd5b50565b6145e981613c6a565b81146145f457600080fd5b50565b61460081613c96565b811461460b57600080fd5b50565b61461781613cc8565b811461462257600080fd5b5056fea2646970667358221220a05bd8f675c5b4b6b15fd3fc1ef1a540312154f3964d08eb0667496d202f374964736f6c63430008040033",
  "linkReferences": {},
  "deployedLinkReferences": {}
}